:100000000C9475000C9487000C9487000C94870066
:100010000C9487000C9487000C9487000C94870044
:100020000C9487000C9487000C9487000C94870034
:100030000C9487000C9487000C9487000C94870024
:100040000C9487000C9487000C94DD000C948700BE
:100050000C9487000C9487000C9487000C94870004
:100060000C9487000C94870007634236B79BD8A78F
:100070001A39685618AEBAAB558C1D3CB7CC5763CD
:10008000BD6DEDFD753EF6177231BF000000803F7B
:1000900008000000BE922449123EABAAAA2ABECD97
:1000A000CCCC4C3E00000080BEABAAAAAA3E000009
:1000B0000000BF000000803F000000000008417801
:1000C000D3BB4387D1133D190E3CC3BD4282AD2B38
:1000D0003E68EC8276BED98FE1A93E4C80EFFFBE30
:1000E00001C4FF7F3F000000000011241FBECFEFBE
:1000F000D8E0DEBFCDBF21E0A0E0B1E001C01D929D
:10010000AD32B207E1F70E94D1020C9421070C94A2
:10011000000083B18170089583B186958170089540
:1001200089B182FB882780F908958FE290E090934F
:10013000C5008093C400E1ECF0E080818861808399
:1001400086E08093C20080818068808310921401D1
:100150001092150108959091C00095FFFCCF8093F7
:10016000C6000895EF92FF920F931F93CF93DF93F2
:100170008C01EC01E62EF12CCE01801B910B8E152B
:100180009F056CF489910E94AB002FEF8FEF92E0F6
:10019000215080409040E1F700C000C0EDCFDF91DA
:1001A000CF911F910F91FF90EF9008958091C00023
:1001B00087FFFCCF8091C60008951F920F920FB663
:1001C0000F9211248F938091C60080931701809124
:1001D00017018F3629F481E0809311015E9A14C0D3
:1001E00080911701863619F4109211010DC080918B
:1001F0001701813649F410921301109210011092E8
:1002000016015C985B9841988F910F900FBE0F90EC
:100210001F90189520E030E090E841E0FB01E35E9C
:10022000FE4F592F582311F0408301C010822F5FD9
:100230003F4F96956F5F7F4F2830310579F70895CE
:100240008F929F92BF92CF92DF92EF92FF920F9385
:100250001F93CF93DF9300D000D0CDB7DEB7E12C52
:10026000F12C812C912C0FE010E0F401E35EFE4FA5
:10027000B080B80168197909882777FD8095982F93
:100280000E9465049B01AC0160E070E080E090E4B6
:100290000E9454059B01AC01B70180E090E02983E6
:1002A0003A834B835C830E9463046B017C016B2D5A
:1002B000772767FD7095872F972F0E946504298106
:1002C0003A814B815C810E94F1049B01AC01C70122
:1002D000B6010E94D3030E9437047B012FEF821ADC
:1002E000920AE0E18E16910409F0BFCFCB010F9086
:1002F0000F900F900F90DF91CF911F910F91FF9072
:10030000EF90DF90CF90BF909F908F900895CF9205
:10031000DF92EF92FF920F931F934115510521F445
:100320000115110509F4A0C094EA9093BC009091C6
:10033000BC0097FFFCCF9091B900987F983009F0EE
:1003400068C0982F9E7F9093BB0094E89093BC0068
:100350009091BC0097FFFCCF9091B900987F9831A5
:1003600021F0903209F055C051C0FB01460F571FD4
:1003700064E8E417F50791F091919093BB006093C6
:10038000BC009091BC0097FFFCCF9091B900987F82
:10039000983279F39033E9F590E338C0F901020F10
:1003A000131F24E8E017F10779F091919093BB00B7
:1003B0002093BC009091BC0097FFFCCF9091B900B6
:1003C000987F983279F3E6CFC114D10409F44AC07A
:1003D00020E194EA9093BC009091BC0097FFFCCF81
:1003E0009091B900987F921314C081608093BB00F4
:1003F00084E88093BC008091BC0087FFFCCF909183
:10040000B900987F903439F0983419F484E98093D6
:10041000BC00892F2FC0F70184EC91E0C916D104EC
:1004200091F08093BC009091BC0097FFFCCF90911D
:10043000B900987F21E0C21AD108903551F7909108
:10044000BB009193EACF84E88093BC008091BC000C
:1004500087FFFCCF9091B900987F9835D1F68091B5
:10046000BB00808390E0D2CFC114D10411F028E00A
:10047000B0CF80E01F910F91FF90EF90DF90CF9071
:100480000895CF92DF92EF92FF920F931F938AE02D
:1004900080931C0180E880931A01C12CD12CE12C9F
:1004A000F12C01E010E02CE131E041E050E06AE1A4
:1004B00071E086E20E9487011F910F91FF90EF90FB
:1004C000DF90CF900895CF92DF92EF92FF920F933B
:1004D0001F93CF93DF93C8E1D1E080E1FE01119239
:1004E0008A95E9F787E880931B0182E0C82ED12C1A
:1004F0007E0100E010E020E030E041E050E06BE100
:1005000071E086E20E94870160E070E088810E94CD
:100510000A0168E070E0809119010E940A01DF91F0
:10052000CF911F910F91FF90EF90DF90CF900C949F
:1005300020011092B9008093B800089505966AE0F2
:1005400070E00E9469036115710531F081E28A95BE
:10055000F1F761507109F7CF08950F931F93CF936F
:10056000DF93EC019C0140E050E060E472E48FE036
:1005700090E00E947D035695479537952795890110
:10058000209751F05F9AC8010E949E025F98C801AF
:100590000E949E022197F4CFDF91CF911F910F917E
:1005A000089578940E9495008DE10E94990210921E
:1005B0001101539A549A579A569A399A5E98C1E003
:1005C00080911101882309F482C05E9A0E948900FB
:1005D000182F0E948C00D82F0E949000082F2FEF18
:1005E0008FEF9BE3215080409040E1F700C0000076
:1005F0000E9441020E9463022FEF8FEF9DE1215084
:1006000080409040E1F700C000000E9441020E943B
:100610006302883B9B4098F4C0931301419A87E79B
:100620000E94AB008FEF9FEF2BE381509040204062
:10063000E1F700C0000085E60E94AB0002C0109206
:1006400013011023A1F05B9AC0931001419A8DE62B
:100650000E94AB008FEF9FEF2BE381509040204032
:10066000E1F700C0000085E60E94AB0002C01092D6
:1006700010018091130190911001982B09F05B9A61
:10068000809110012091130141E050E0DD2311F031
:1006900040E050E0282B332727FD309524233523D5
:1006A000232B11F05C9A09C08091100190911301E5
:1006B000982B9D2311F0C093160180911601882379
:1006C00009F47ECF80ED97E00E94AD02F6CF5E98F0
:1006D00077CF97FB072E16F4009407D077FD09D04B
:1006E0000E949C0307FC05D03EF4909581959F4F96
:1006F0000895709561957F4F0895052E97FB1EF420
:1007000000940E94940357FD07D00E94B00307FC99
:1007100003D04EF40C949403509540953095219558
:100720003F4F4F4F5F4F089590958095709561951D
:100730007F4F8F4F9F4F0895AA1BBB1B51E107C0EE
:10074000AA1FBB1FA617B70710F0A61BB70B881F61
:10075000991F5A95A9F780959095BC01CD010895F0
:10076000A1E21A2EAA1BBB1BFD010DC0AA1FBB1FB5
:10077000EE1FFF1FA217B307E407F50720F0A21B27
:10078000B30BE40BF50B661F771F881F991F1A9494
:1007900069F760957095809590959B01AC01BD01BE
:1007A000CF0108955058BB27AA270ED0E0C0D1D062
:1007B00030F0D6D020F031F49F3F11F41EF4C6C0C3
:1007C0000EF4E095E7FBBCC0E92FE2D080F3BA1746
:1007D000620773078407950718F071F49EF5FAC055
:1007E0000EF4E0950B2EBA2FA02D0B01B90190014C
:1007F0000C01CA01A0011124FF27591B99F0593F90
:1008000050F4503E68F11A16F040A22F232F342FD7
:100810004427585FF3CF469537952795A795F04025
:100820005395C9F77EF41F16BA0B620B730B840B3A
:10083000BAF09150A1F0FF0FBB1F661F771F881FF2
:10084000C2F70EC0BA0F621F731F841F48F487954A
:1008500077956795B795F7959E3F08F0B3CF939539
:10086000880F08F09927EE0F97958795089598D0EF
:1008700088F09F5790F0B92F9927B751A0F0D1F089
:10088000660F771F881F991F1AF0BA95C9F712C013
:10089000B13081F09FD0B1E008959CC0672F782FD0
:1008A0008827B85F39F0B93FCCF38695779567957F
:1008B000B395D9F73EF490958095709561957F4FEB
:1008C0008F4F9F4F0895E89409C097FB3EF4909591
:1008D0008095709561957F4F8F4F9F4F9923A9F019
:1008E000F92F96E9BB279395F695879577956795A8
:1008F000B795F111F8CFFAF4BB0F11F460FF1BC0EC
:100900006F5F7F4F8F4F9F4F16C0882311F096E97E
:1009100011C0772321F09EE8872F762F05C066232C
:1009200071F096E8862F70E060E02AF09A95660FE5
:10093000771F881FDAF7880F9695879597F908959E
:1009400097F99F6780E870E060E008959FEF80EC82
:10095000089500240A941616170618060906089525
:1009600000240A9412161306140605060895092E8B
:100970000394000C11F4882352F0BB0F40F4BF2BFA
:1009800011F460FF04C06F5F7F4F8F4F9F4F08953A
:1009900057FD9058440F551F59F05F3F71F0479530
:1009A000880F97FB991F61F09F3F79F08795089515
:1009B000121613061406551FF2CF4695F1DF08C034
:1009C000161617061806991FF1CF86957105610551
:1009D00008940895E894BB2766277727CB0197F9F9
:1009E00008950BD0C4CFB5DF28F0BADF18F09523F7
:1009F00009F0A6CFABCF1124EECFCADFA0F3959FAD
:100A0000D1F3950F50E0551F629FF001729FBB27F5
:100A1000F00DB11D639FAA27F00DB11DAA1F649FA1
:100A20006627B00DA11D661F829F2227B00DA11D54
:100A3000621F739FB00DA11D621F839FA00D611DDA
:100A4000221F749F3327A00D611D231F849F600DFB
:100A5000211D822F762F6A2F11249F5750408AF034
:100A6000E1F088234AF0EE0FFF1FBB1F661F771FC0
:100A7000881F91505040A9F79E3F510570F060CFFC
:100A8000AACF5F3FECF3983EDCF3869577956795A8
:100A9000B795F795E7959F5FC1F7FE2B880F911DDE
:100AA0009695879597F90895FA01EE0FFF1F3096F6
:100AB0002105310599F16115710561F48038BFE3B5
:100AC0009B0749F168949038810561F08038BFEF49
:100AD0009B0741F0992342F5FF3FE10531052105D0
:100AE00011F1E8940894E795D901AA2329F4AB2FD2
:100AF000BE2FF85FD0F310C0FF5F70F4A695E0F74B
:100B0000F73950F019F0FF3A38F49F779F930CD0E3
:100B10000F9007FC905808953EF018CF60E070E009
:100B200080E89FE308954FE79F775F934F933F934C
:100B30002F939ED02F913F914F915F9152DF05C02F
:100B400019F40EF0FDCE46CF01CF2ADFC8F3963858
:100B5000C0F707F80F92E8942BE33AEA48EB5FE717
:100B60004EDF0F920F920F924DB75EB70F92C0D02B
:100B7000E8E6F0E016D04F915F91EF91FF91E59597
:100B8000EE1FFF1F49F0FE57E0684427EE0F441F99
:100B9000FA95E1F74195550B32D00F9007FE26C02C
:100BA0000895DF93CF931F930F93FF92EF92DF92FD
:100BB0007B018C01689405C0DA2EEF011EDFFE0177
:100BC000E894A5912591359145915591AEF3EF01AA
:100BD000FBDDFE019701A801DA9479F7DF90EF9031
:100BE000FF900F911F91CF91DF9108959B01AC0170
:100BF00060E070E080E89FE3AEC0A2CE14C1D0DE1A
:100C0000E8F39923D9F3940F511DBBF39150504051
:100C100094F059F0882332F0660F771F881F9150A7
:100C20005040C1F79E3F510544F7880F911D96959E
:100C3000879597F908955F3FACF0983E9CF0BB27ED
:100C4000869577956795B79508F4B1609395C1F748
:100C5000BB0F58F711F460FFE8CF6F5F7F4F8F4FE6
:100C60009F4FE3CFB8CE0EF0DEC070CE689468CE52
:100C700097DEC8F39923D1F3C6F3DF93CF931F9385
:100C80000F93FF92C92FDD2788232AF02197660F43
:100C9000771F881FDAF720E030E040E85FEB9FE342
:100CA000883920F0803E30F021968F777CDDE0E9B6
:100CB000F0E003C078DDEDEBF0E073DF8B01BE0107
:100CC000EC01FB2E6F5771097595771F880B990BF7
:100CD000FCDD28E132E741E35FE38FDEAF2D9801D1
:100CE000AE01FF900F911F91CF91DF916DDD3FCE4F
:100CF000FA01DC01AA0FBB1F9B01AC01BF5728F40E
:100D000022273327442750781FC0B75188F4AB2FD0
:100D10000024469537952795011CA395D2F3002012
:100D200069F0220F331F441FB395DAF30DD03ACD8B
:100D300061307105A0E88A07B94630F49B01AC0127
:100D40006627772788279078309621F02083318393
:100D50004283538308950CD00ACE02DE40F0F9DDC1
:100D600030F021F45F3F19F0EBCD511134CEEECDD0
:100D70000FDE98F39923C9F35523B1F3951B550B57
:100D8000BB27AA2762177307840738F09F5F5F4F5E
:100D9000220F331F441FAA1FA9F333D00E2E3AF09F
:100DA000E0E830D091505040E695001CCAF729D0B9
:100DB000FE2F27D0660F771F881FBB1F2617370708
:100DC0004807AB07B0E809F0BB0B802DBF01FF2738
:100DD00093585F4F2AF09E3F510568F0B1CDFBCD8F
:100DE0005F3FECF3983EDCF3869577956795B79572
:100DF000F7959F5FC9F7880F911D9695879597F98D
:100E00000895E1E0660F771F881FBB1F6217730705
:100E10008407BA0720F0621B730B840BBA0BEE1F1A
:100E200088F7E09508959F3F31F0915020F4879521
:100E300077956795B795880F911D9695879597F942
:060E40000895F894FFCFB5
:00000001FF
